{
  "contractName": "Transactions",
  "abi": [
    {
      "anonymous": false,
      "inputs": [
        {
          "indexed": false,
          "internalType": "address",
          "name": "from",
          "type": "address"
        },
        {
          "indexed": false,
          "internalType": "address",
          "name": "receiver",
          "type": "address"
        },
        {
          "indexed": false,
          "internalType": "uint256",
          "name": "amount",
          "type": "uint256"
        },
        {
          "indexed": false,
          "internalType": "string",
          "name": "message",
          "type": "string"
        },
        {
          "indexed": false,
          "internalType": "uint256",
          "name": "timeStamp",
          "type": "uint256"
        },
        {
          "indexed": false,
          "internalType": "string",
          "name": "keyword",
          "type": "string"
        }
      ],
      "name": "Transfer",
      "type": "event"
    },
    {
      "inputs": [
        {
          "internalType": "address payable",
          "name": "receiver",
          "type": "address"
        },
        {
          "internalType": "uint256",
          "name": "amount",
          "type": "uint256"
        },
        {
          "internalType": "string",
          "name": "message",
          "type": "string"
        },
        {
          "internalType": "string",
          "name": "keyword",
          "type": "string"
        }
      ],
      "name": "addtoBlockchain",
      "outputs": [],
      "stateMutability": "nonpayable",
      "type": "function"
    },
    {
      "inputs": [],
      "name": "getAllTransactions",
      "outputs": [
        {
          "components": [
            {
              "internalType": "address",
              "name": "sender",
              "type": "address"
            },
            {
              "internalType": "address",
              "name": "receiver",
              "type": "address"
            },
            {
              "internalType": "uint256",
              "name": "amount",
              "type": "uint256"
            },
            {
              "internalType": "string",
              "name": "message",
              "type": "string"
            },
            {
              "internalType": "uint256",
              "name": "timeStamp",
              "type": "uint256"
            },
            {
              "internalType": "string",
              "name": "keyword",
              "type": "string"
            }
          ],
          "internalType": "struct Transactions.TransferStruct[]",
          "name": "",
          "type": "tuple[]"
        }
      ],
      "stateMutability": "view",
      "type": "function",
      "constant": true
    },
    {
      "inputs": [],
      "name": "getTransactionCount",
      "outputs": [
        {
          "internalType": "uint256",
          "name": "",
          "type": "uint256"
        }
      ],
      "stateMutability": "view",
      "type": "function",
      "constant": true
    }
  ],
  "bytecode": "0x6080604052348015600e575f80fd5b50610d928061001c5f395ff3fe608060405234801561000f575f80fd5b506004361061003f575f3560e01c80631ab324f51461004357806327506f531461005f5780632e7700f01461007d575b5f80fd5b61005d60048036038101906100589190610662565b61009b565b005b610067610247565b60405161007491906108d5565b60405180910390f35b610085610480565b6040516100929190610904565b60405180910390f35b60015f808282546100ac919061094a565b9250508190555060016040518060c001604052803373ffffffffffffffffffffffffffffffffffffffff1681526020018673ffffffffffffffffffffffffffffffffffffffff16815260200185815260200184815260200142815260200183815250908060018154018082558091505060019003905f5260205f2090600602015f909190919091505f820151815f015f6101000a81548173ffffffffffffffffffffffffffffffffffffffff021916908373ffffffffffffffffffffffffffffffffffffffff1602179055506020820151816001015f6101000a81548173ffffffffffffffffffffffffffffffffffffffff021916908373ffffffffffffffffffffffffffffffffffffffff1602179055506040820151816002015560608201518160030190816101dd9190610b77565b506080820151816004015560a08201518160050190816101fd9190610b77565b5050507f416cfa4330a4565f45c2fd2dd4826a83a37443aba2ce6f79477c7355afac35fa33858585428660405161023996959493929190610cef565b60405180910390a150505050565b60606001805480602002602001604051908101604052809291908181526020015f905b82821015610477578382905f5260205f2090600602016040518060c00160405290815f82015f9054906101000a900473ffffffffffffffffffffffffffffffffffffffff1673ffffffffffffffffffffffffffffffffffffffff1673ffffffffffffffffffffffffffffffffffffffff168152602001600182015f9054906101000a900473ffffffffffffffffffffffffffffffffffffffff1673ffffffffffffffffffffffffffffffffffffffff1673ffffffffffffffffffffffffffffffffffffffff1681526020016002820154815260200160038201805461034e906109aa565b80601f016020809104026020016040519081016040528092919081815260200182805461037a906109aa565b80156103c55780601f1061039c576101008083540402835291602001916103c5565b820191905f5260205f20905b8154815290600101906020018083116103a857829003601f168201915b50505050508152602001600482015481526020016005820180546103e8906109aa565b80601f0160208091040260200160405190810160405280929190818152602001828054610414906109aa565b801561045f5780601f106104365761010080835404028352916020019161045f565b820191905f5260205f20905b81548152906001019060200180831161044257829003601f168201915b5050505050815250508152602001906001019061026a565b50505050905090565b5f8054905090565b5f604051905090565b5f80fd5b5f80fd5b5f73ffffffffffffffffffffffffffffffffffffffff82169050919050565b5f6104c282610499565b9050919050565b6104d2816104b8565b81146104dc575f80fd5b50565b5f813590506104ed816104c9565b92915050565b5f819050919050565b610505816104f3565b811461050f575f80fd5b50565b5f81359050610520816104fc565b92915050565b5f80fd5b5f80fd5b5f601f19601f8301169050919050565b7f4e487b71000000000000000000000000000000000000000000000000000000005f52604160045260245ffd5b6105748261052e565b810181811067ffffffffffffffff821117156105935761059261053e565b5b80604052505050565b5f6105a5610488565b90506105b1828261056b565b919050565b5f67ffffffffffffffff8211156105d0576105cf61053e565b5b6105d98261052e565b9050602081019050919050565b828183375f83830152505050565b5f610606610601846105b6565b61059c565b9050828152602081018484840111156106225761062161052a565b5b61062d8482856105e6565b509392505050565b5f82601f83011261064957610648610526565b5b81356106598482602086016105f4565b91505092915050565b5f805f806080858703121561067a57610679610491565b5b5f610687878288016104df565b945050602061069887828801610512565b935050604085013567ffffffffffffffff8111156106b9576106b8610495565b5b6106c587828801610635565b925050606085013567ffffffffffffffff8111156106e6576106e5610495565b5b6106f287828801610635565b91505092959194509250565b5f81519050919050565b5f82825260208201905092915050565b5f819050602082019050919050565b5f61073182610499565b9050919050565b61074181610727565b82525050565b610750816104f3565b82525050565b5f81519050919050565b5f82825260208201905092915050565b8281835e5f83830152505050565b5f61078882610756565b6107928185610760565b93506107a2818560208601610770565b6107ab8161052e565b840191505092915050565b5f60c083015f8301516107cb5f860182610738565b5060208301516107de6020860182610738565b5060408301516107f16040860182610747565b5060608301518482036060860152610809828261077e565b915050608083015161081e6080860182610747565b5060a083015184820360a0860152610836828261077e565b9150508091505092915050565b5f61084e83836107b6565b905092915050565b5f602082019050919050565b5f61086c826106fe565b6108768185610708565b93508360208202850161088885610718565b805f5b858110156108c357848403895281516108a48582610843565b94506108af83610856565b925060208a0199505060018101905061088b565b50829750879550505050505092915050565b5f6020820190508181035f8301526108ed8184610862565b905092915050565b6108fe816104f3565b82525050565b5f6020820190506109175f8301846108f5565b92915050565b7f4e487b71000000000000000000000000000000000000000000000000000000005f52601160045260245ffd5b5f610954826104f3565b915061095f836104f3565b92508282019050808211156109775761097661091d565b5b92915050565b7f4e487b71000000000000000000000000000000000000000000000000000000005f52602260045260245ffd5b5f60028204905060018216806109c157607f821691505b6020821081036109d4576109d361097d565b5b50919050565b5f819050815f5260205f209050919050565b5f6020601f8301049050919050565b5f82821b905092915050565b5f60088302610a367fffffffffffffffffffffffffffffffffffffffffffffffffffffffffffffffff826109fb565b610a4086836109fb565b95508019841693508086168417925050509392505050565b5f819050919050565b5f610a7b610a76610a71846104f3565b610a58565b6104f3565b9050919050565b5f819050919050565b610a9483610a61565b610aa8610aa082610a82565b848454610a07565b825550505050565b5f90565b610abc610ab0565b610ac7818484610a8b565b505050565b5b81811015610aea57610adf5f82610ab4565b600181019050610acd565b5050565b601f821115610b2f57610b00816109da565b610b09846109ec565b81016020851015610b18578190505b610b2c610b24856109ec565b830182610acc565b50505b505050565b5f82821c905092915050565b5f610b4f5f1984600802610b34565b1980831691505092915050565b5f610b678383610b40565b9150826002028217905092915050565b610b8082610756565b67ffffffffffffffff811115610b9957610b9861053e565b5b610ba382546109aa565b610bae828285610aee565b5f60209050601f831160018114610bdf575f8415610bcd578287015190505b610bd78582610b5c565b865550610c3e565b601f198416610bed866109da565b5f5b82811015610c1457848901518255600182019150602085019450602081019050610bef565b86831015610c315784890151610c2d601f891682610b40565b8355505b6001600288020188555050505b505050505050565b610c4f81610727565b82525050565b5f610c6f610c6a610c6584610499565b610a58565b610499565b9050919050565b5f610c8082610c55565b9050919050565b5f610c9182610c76565b9050919050565b610ca181610c87565b82525050565b5f82825260208201905092915050565b5f610cc182610756565b610ccb8185610ca7565b9350610cdb818560208601610770565b610ce48161052e565b840191505092915050565b5f60c082019050610d025f830189610c46565b610d0f6020830188610c98565b610d1c60408301876108f5565b8181036060830152610d2e8186610cb7565b9050610d3d60808301856108f5565b81810360a0830152610d4f8184610cb7565b905097965050505050505056fea26469706673582212205d569726f306f27831158cbe329886e7d9def128537299cb383362a606b2f7b264736f6c63430008190033",
  "immutableReferences": {},
  "source": "//SPDX-License-Identifier: Unlicensed\r\npragma solidity ^0.8.0;\r\n\r\ncontract Transactions {\r\n    \r\n    uint256 transactionCounter;\r\n    event Transfer(address from,address receiver,uint amount, string message,uint256 timeStamp,string keyword);\r\n\r\n    struct TransferStruct{\r\n        address sender;\r\n        address receiver;\r\n        uint amount;\r\n        string message;\r\n        uint256 timeStamp;\r\n        string keyword;\r\n    }\r\n\r\n    TransferStruct[] transactions;\r\n\r\n    function addtoBlockchain(address payable receiver,uint amount,string memory message,string memory keyword) public {\r\n        transactionCounter+=1;\r\n        transactions.push(TransferStruct(msg.sender,receiver,amount,message,block.timestamp,keyword));\r\n\r\n        emit Transfer(msg.sender,receiver,amount,message,block.timestamp,keyword);\r\n        \r\n        \r\n    }\r\n    function getAllTransactions() public view returns(TransferStruct[] memory){\r\n        return transactions;\r\n    }\r\n    function getTransactionCount() public view returns (uint256) {\r\n        return transactionCounter;\r\n\r\n    }\r\n\r\n}",
  "sourcePath": "C:\\Users\\hp5cd\\OneDrive\\Desktop\\Krypt\\smart_contract\\contracts\\Transactions.sol",
  "compiler": {
    "name": "solc",
    "version": "0.8.25+commit.b61c2a91.Emscripten.clang"
  },
  "schemaVersion": "3.4.16",
  "updatedAt": "2024-03-23T18:03:44.250Z",
  "networkType": "ethereum",
  "devdoc": {
    "kind": "dev",
    "methods": {},
    "version": 1
  },
  "userdoc": {
    "kind": "user",
    "methods": {},
    "version": 1
  }
}