{
  "contractName": "Transactions",
  "abi": [
    {
      "anonymous": false,
      "inputs": [
        {
          "indexed": false,
          "internalType": "address",
          "name": "from",
          "type": "address"
        },
        {
          "indexed": false,
          "internalType": "address",
          "name": "receiver",
          "type": "address"
        },
        {
          "indexed": false,
          "internalType": "uint256",
          "name": "amount",
          "type": "uint256"
        },
        {
          "indexed": false,
          "internalType": "string",
          "name": "message",
          "type": "string"
        },
        {
          "indexed": false,
          "internalType": "uint256",
          "name": "timeStamp",
          "type": "uint256"
        },
        {
          "indexed": false,
          "internalType": "string",
          "name": "keyword",
          "type": "string"
        }
      ],
      "name": "Transfer",
      "type": "event"
    },
    {
      "inputs": [
        {
          "internalType": "address",
          "name": "receiver",
          "type": "address"
        },
        {
          "internalType": "uint256",
          "name": "amount",
          "type": "uint256"
        },
        {
          "internalType": "string",
          "name": "message",
          "type": "string"
        },
        {
          "internalType": "string",
          "name": "keyword",
          "type": "string"
        }
      ],
      "name": "addtoBlockchain",
      "outputs": [],
      "stateMutability": "nonpayable",
      "type": "function"
    },
    {
      "inputs": [],
      "name": "getAllTransactions",
      "outputs": [
        {
          "components": [
            {
              "internalType": "address",
              "name": "sender",
              "type": "address"
            },
            {
              "internalType": "address",
              "name": "receiver",
              "type": "address"
            },
            {
              "internalType": "uint256",
              "name": "amount",
              "type": "uint256"
            },
            {
              "internalType": "string",
              "name": "message",
              "type": "string"
            },
            {
              "internalType": "uint256",
              "name": "timeStamp",
              "type": "uint256"
            },
            {
              "internalType": "string",
              "name": "keyword",
              "type": "string"
            }
          ],
          "internalType": "struct Transactions.TransferStruct[]",
          "name": "",
          "type": "tuple[]"
        }
      ],
      "stateMutability": "view",
      "type": "function",
      "constant": true
    },
    {
      "inputs": [],
      "name": "getTransactionCount",
      "outputs": [
        {
          "internalType": "uint256",
          "name": "",
          "type": "uint256"
        }
      ],
      "stateMutability": "view",
      "type": "function",
      "constant": true
    }
  ],
  "bytecode": "0x608060405234801561001057600080fd5b50610da5806100206000396000f3fe608060405234801561001057600080fd5b50600436106100415760003560e01c80631ab324f51461004657806327506f53146100625780632e7700f014610080575b600080fd5b610060600480360381019061005b919061068c565b61009e565b005b61006a610252565b604051610077919061091a565b60405180910390f35b610088610495565b604051610095919061094b565b60405180910390f35b60016000808282546100b09190610995565b9250508190555060016040518060c001604052803373ffffffffffffffffffffffffffffffffffffffff1681526020018673ffffffffffffffffffffffffffffffffffffffff16815260200185815260200184815260200142815260200183815250908060018154018082558091505060019003906000526020600020906006020160009091909190915060008201518160000160006101000a81548173ffffffffffffffffffffffffffffffffffffffff021916908373ffffffffffffffffffffffffffffffffffffffff16021790555060208201518160010160006101000a81548173ffffffffffffffffffffffffffffffffffffffff021916908373ffffffffffffffffffffffffffffffffffffffff1602179055506040820151816002015560608201518160030190816101e89190610bd5565b506080820151816004015560a08201518160050190816102089190610bd5565b5050507f416cfa4330a4565f45c2fd2dd4826a83a37443aba2ce6f79477c7355afac35fa33858585428660405161024496959493929190610d00565b60405180910390a150505050565b60606001805480602002602001604051908101604052809291908181526020016000905b8282101561048c57838290600052602060002090600602016040518060c00160405290816000820160009054906101000a900473ffffffffffffffffffffffffffffffffffffffff1673ffffffffffffffffffffffffffffffffffffffff1673ffffffffffffffffffffffffffffffffffffffff1681526020016001820160009054906101000a900473ffffffffffffffffffffffffffffffffffffffff1673ffffffffffffffffffffffffffffffffffffffff1673ffffffffffffffffffffffffffffffffffffffff1681526020016002820154815260200160038201805461035f906109f8565b80601f016020809104026020016040519081016040528092919081815260200182805461038b906109f8565b80156103d85780601f106103ad576101008083540402835291602001916103d8565b820191906000526020600020905b8154815290600101906020018083116103bb57829003601f168201915b50505050508152602001600482015481526020016005820180546103fb906109f8565b80601f0160208091040260200160405190810160405280929190818152602001828054610427906109f8565b80156104745780601f1061044957610100808354040283529160200191610474565b820191906000526020600020905b81548152906001019060200180831161045757829003601f168201915b50505050508152505081526020019060010190610276565b50505050905090565b60008054905090565b6000604051905090565b600080fd5b600080fd5b600073ffffffffffffffffffffffffffffffffffffffff82169050919050565b60006104dd826104b2565b9050919050565b6104ed816104d2565b81146104f857600080fd5b50565b60008135905061050a816104e4565b92915050565b6000819050919050565b61052381610510565b811461052e57600080fd5b50565b6000813590506105408161051a565b92915050565b600080fd5b600080fd5b6000601f19601f8301169050919050565b7f4e487b7100000000000000000000000000000000000000000000000000000000600052604160045260246000fd5b61059982610550565b810181811067ffffffffffffffff821117156105b8576105b7610561565b5b80604052505050565b60006105cb61049e565b90506105d78282610590565b919050565b600067ffffffffffffffff8211156105f7576105f6610561565b5b61060082610550565b9050602081019050919050565b82818337600083830152505050565b600061062f61062a846105dc565b6105c1565b90508281526020810184848401111561064b5761064a61054b565b5b61065684828561060d565b509392505050565b600082601f83011261067357610672610546565b5b813561068384826020860161061c565b91505092915050565b600080600080608085870312156106a6576106a56104a8565b5b60006106b4878288016104fb565b94505060206106c587828801610531565b935050604085013567ffffffffffffffff8111156106e6576106e56104ad565b5b6106f28782880161065e565b925050606085013567ffffffffffffffff811115610713576107126104ad565b5b61071f8782880161065e565b91505092959194509250565b600081519050919050565b600082825260208201905092915050565b6000819050602082019050919050565b610760816104d2565b82525050565b61076f81610510565b82525050565b600081519050919050565b600082825260208201905092915050565b60005b838110156107af578082015181840152602081019050610794565b60008484015250505050565b60006107c682610775565b6107d08185610780565b93506107e0818560208601610791565b6107e981610550565b840191505092915050565b600060c08301600083015161080c6000860182610757565b50602083015161081f6020860182610757565b5060408301516108326040860182610766565b506060830151848203606086015261084a82826107bb565b915050608083015161085f6080860182610766565b5060a083015184820360a086015261087782826107bb565b9150508091505092915050565b600061089083836107f4565b905092915050565b6000602082019050919050565b60006108b08261072b565b6108ba8185610736565b9350836020820285016108cc85610747565b8060005b8581101561090857848403895281516108e98582610884565b94506108f483610898565b925060208a019950506001810190506108d0565b50829750879550505050505092915050565b6000602082019050818103600083015261093481846108a5565b905092915050565b61094581610510565b82525050565b6000602082019050610960600083018461093c565b92915050565b7f4e487b7100000000000000000000000000000000000000000000000000000000600052601160045260246000fd5b60006109a082610510565b91506109ab83610510565b92508282019050808211156109c3576109c2610966565b5b92915050565b7f4e487b7100000000000000000000000000000000000000000000000000000000600052602260045260246000fd5b60006002820490506001821680610a1057607f821691505b602082108103610a2357610a226109c9565b5b50919050565b60008190508160005260206000209050919050565b60006020601f8301049050919050565b600082821b905092915050565b600060088302610a8b7fffffffffffffffffffffffffffffffffffffffffffffffffffffffffffffffff82610a4e565b610a958683610a4e565b95508019841693508086168417925050509392505050565b6000819050919050565b6000610ad2610acd610ac884610510565b610aad565b610510565b9050919050565b6000819050919050565b610aec83610ab7565b610b00610af882610ad9565b848454610a5b565b825550505050565b600090565b610b15610b08565b610b20818484610ae3565b505050565b5b81811015610b4457610b39600082610b0d565b600181019050610b26565b5050565b601f821115610b8957610b5a81610a29565b610b6384610a3e565b81016020851015610b72578190505b610b86610b7e85610a3e565b830182610b25565b50505b505050565b600082821c905092915050565b6000610bac60001984600802610b8e565b1980831691505092915050565b6000610bc58383610b9b565b9150826002028217905092915050565b610bde82610775565b67ffffffffffffffff811115610bf757610bf6610561565b5b610c0182546109f8565b610c0c828285610b48565b600060209050601f831160018114610c3f5760008415610c2d578287015190505b610c378582610bb9565b865550610c9f565b601f198416610c4d86610a29565b60005b82811015610c7557848901518255600182019150602085019450602081019050610c50565b86831015610c925784890151610c8e601f891682610b9b565b8355505b6001600288020188555050505b505050505050565b610cb0816104d2565b82525050565b600082825260208201905092915050565b6000610cd282610775565b610cdc8185610cb6565b9350610cec818560208601610791565b610cf581610550565b840191505092915050565b600060c082019050610d156000830189610ca7565b610d226020830188610ca7565b610d2f604083018761093c565b8181036060830152610d418186610cc7565b9050610d50608083018561093c565b81810360a0830152610d628184610cc7565b905097965050505050505056fea264697066735822122082e25b03210cb607bb5f4928e19302c2b9cc0762758755c97661270fbe62d04364736f6c63430008130033",
  "immutableReferences": {},
  "source": "//SPDX-License-Identifier: Unlicensed\r\npragma solidity 0.8.19;\r\n\r\ncontract Transactions {\r\n    \r\n    uint256 transactionCounter;\r\n    event Transfer(address from,address receiver,uint amount, string message,uint256 timeStamp,string keyword);\r\n\r\n    struct TransferStruct{\r\n        address sender;\r\n        address receiver;\r\n        uint amount;\r\n        string message;\r\n        uint256 timeStamp;\r\n        string keyword;\r\n    }\r\n\r\n    TransferStruct[] transactions;\r\n\r\n    function addtoBlockchain(address receiver,uint amount,string memory message,string memory keyword) public {\r\n        transactionCounter+=1;\r\n        transactions.push(TransferStruct(msg.sender,receiver,amount,message,block.timestamp,keyword));\r\n\r\n        emit Transfer(msg.sender,receiver,amount,message,block.timestamp,keyword);\r\n        \r\n        \r\n    }\r\n    function getAllTransactions() public view returns(TransferStruct[] memory){\r\n        return transactions;\r\n    }\r\n    function getTransactionCount() public view returns (uint256) {\r\n        return transactionCounter;\r\n\r\n    }\r\n\r\n}",
  "sourcePath": "C:\\Users\\hp5cd\\OneDrive\\Desktop\\Krypt\\smart_contract\\contracts\\Transactions.sol",
  "compiler": {
    "name": "solc",
    "version": "0.8.19+commit.7dd6d404.Emscripten.clang"
  },
  "schemaVersion": "3.4.16",
  "updatedAt": "2024-03-24T11:29:39.608Z",
  "networkType": "ethereum",
  "devdoc": {
    "kind": "dev",
    "methods": {},
    "version": 1
  },
  "userdoc": {
    "kind": "user",
    "methods": {},
    "version": 1
  }
}